:100000000C942A000C9447000C9447000C94470071
:100010000C9447000C9447000C9447000C94470044
:100020000C94CF020C9447000C9447000C94980257
:100030000C9447000C9447000C9447000C94470024
:100040000C9447000C9447000C9447000C94470014
:100050000C94470011241FBECFE5D4E0DEBFCDBF16
:1000600010E0A0E6B0E0E6E9FCE002C005900D92E9
:10007000A63EB107D9F720E0A6EEB0E001C01D9280
:10008000A03FB207E1F70E946E030C9449060C945E
:100090000000672B09F09FC0009711F4D8980895CD
:1000A0008130910511F4D99808958230910511F4A9
:1000B000DA9808958330910511F4DB98089584301F
:1000C000910511F4DC9808958530910511F4DD98BF
:1000D00008958630910511F4DE98089587309105D2
:1000E00011F4DF9808958A30910511F4C0980895AD
:1000F0008B30910511F4C19808958C30910511F45D
:10010000C29808958D30910511F4C39808958E30EA
:10011000910511F4C49808958F30910511F4C59894
:1001200008958031910511F4C698089581319105A3
:1001300011F4C79808958431910511F4A898089591
:100140008531910511F4A99808958631910511F42E
:10015000AA9808958731910511F4AB9808958831D4
:10016000910511F4AC9808958931910511F4AD9879
:1001700008958A31910511F4AE9808958B31910557
:1001800011F4AF9808958E31910511F49098089567
:100190008F31910511F4919808958032910511F4F1
:1001A000929808958132910511F4939808958232BE
:1001B000910511F4949808958332910511F495985E
:1001C00008958432910511F496980895859709F061
:1001D0009FC097980895009711F4D89A0895813098
:1001E000910511F4D99A08958230910511F4DA9AA3
:1001F00008958330910511F4DB9A089584309105B8
:1002000011F4DC9A08958530910511F4DD9A089572
:100210008630910511F4DE9A08958730910511F426
:10022000DF9A08958A30910511F4C09A08958B30B1
:10023000910511F4C19A08958C30910511F4C29A78
:1002400008958D30910511F4C39A08958E3091056B
:1002500011F4C49A08958F30910511F4C59A089548
:100260008031910511F4C69A08958131910511F4F8
:10027000C79A08958431910511F4A89A089585319B
:10028000910511F4A99A08958631910511F4AA9A5D
:1002900008958731910511F4AB9A0895883191053D
:1002A00011F4AC9A08958931910511F4AD9A08952D
:1002B0008A31910511F4AE9A08958B31910511F4AC
:1002C000AF9A08958E31910511F4909A08958F3167
:1002D000910511F4919A08958032910511F4929A42
:1002E00008958132910511F4939A0895823291050F
:1002F00011F4949A08958332910511F4959A089512
:100300008432910511F4969A0895859709F4979A85
:100310000895CF93C82F80FF07C061E070E082E2AC
:1003200090E00E94490006C060E070E082E290E048
:100330000E944900C1FF07C061E070E083E290E0E5
:100340000E94490006C060E070E083E290E00E94F5
:100350004900C2FF07C061E070E084E290E00E94C3
:10036000490006C060E070E084E290E00E9449002D
:10037000C3FF07C061E070E085E290E00E944900A1
:1003800006C060E070E085E290E00E944900CF91F5
:100390000895CF93C82F60E070E089E190E00E945B
:1003A00049008C2F0E94890161E070E08BE190E0B0
:1003B0000E9449008FEC97E00197F1F700C0000020
:1003C00060E070E08BE190E00E9449008FEC97E0E4
:1003D0000197F1F700C00000CF91089580E00E94DE
:1003E000C90181E00E94C9010895CF93C62F8130D1
:1003F00059F480E8860F82958F700E94C9018C2F76
:100400008F700E94C9010CC0823051F480EC860FBD
:1004100082958F700E94C9018C2F8F700E94C90134
:10042000CF91089580E00E9489018FE39CE90197B4
:10043000F1F700C0000083E00E94C9018FE097E25D
:100440000197F1F700C0000083E00E94C9018FEE20
:1004500095E50197F1F700C0000083E00E94C90113
:1004600082E00E94C90182E00E94C90188E00E94E6
:10047000C90180E00E94C9018CE00E94C90180E0AE
:100480000E94C90186E00E94C9010895CF93C82F38
:1004900061E070E089E190E00E9449008C2F829534
:1004A0008F700E94890161E070E08BE190E00E9412
:1004B00049008FEC97E00197F1F700C0000060E081
:1004C00070E08BE190E00E9449008FEC97E001978B
:1004D000F1F700C000008C2F8F700E94890161E04D
:1004E00070E08BE190E00E9449008FEC97E001976B
:1004F000F1F700C0000060E070E08BE190E00E9446
:1005000049008FEC97E00197F1F700C00000CF9110
:100510000895CF93DF93EC018881882331F02196F1
:100520000E94460289918111FBCFDF91CF910895FE
:100530001F920F920FB60F9211242F933F934F9358
:100540005F936F937F938F939F93AF93BF93EF933B
:10055000FF93F8940E94B5058093EC008FE59AEE26
:100560000197F1F700C000008091EC00813129F47F
:1005700081E08093E8001092EC007894FF91EF9175
:10058000BF91AF919F918F917F916F915F914F91AB
:100590003F912F910F900FBE0F901F9018951F92B3
:1005A0000F920FB60F9211248F938091EB008F5F03
:1005B0008093EB00F8948091EB008530A0F0CA9B0B
:1005C00007C081E08093EA001092EB0078940CC0A1
:1005D000C99B07C081E08093E9001092EB007894FA
:1005E00003C01092EB0078948F910F900FBE0F9084
:1005F0001F90189580EF8CBF8FEF87BB82E088BB80
:1006000008958FEF8CBF87BB82E088BB089580EF91
:100610008CBF8FEF87BB81E088BB08958FEF8CBFC5
:1006200087BB81E088BB08958FEF81BB84BB8ABB09
:100630001BBA93B7996693BF87BB18BA08958EB556
:1006400081608EBD1DBC1CBC89B7846089BF0895C4
:1006500090BD89B988E98AB986E880BD7894089503
:100660005D9BFECF8CB908955F9BFECF8CB1089542
:100670000E94EE0160E081E00E94F50180E690E0DA
:100680000E9489028091EA00811110C00E94EE014F
:1006900060E081E00E94F5018EE690E00E94890210
:1006A0000E9407038091EA00882381F31CBE0E9408
:1006B000EE0160E081E00E94F5018AE790E00E948F
:1006C00089020E94FA022FEF8CE498E021508040CA
:1006D0009040E1F700C000001CBE08950E94140382
:1006E0000E941F038CE090E00E9428030E941202E7
:1006F0000E9438032FE788E391E02150804090402A
:10070000E1F700C000000E94EE01CFEFD6E160E00B
:1007100081E00E94F50187E890E00E94890260E094
:1007200082E00E94F50182E990E00E9489028091B6
:10073000EC00813181F40E94EE0160E081E00E94D2
:10074000F50188E990E00E9489021CBE18BA109257
:10075000EC0080E005C1823209F0EEC00E94EE019B
:1007600060E081E00E94F5018DE990E00E9489023D
:100770009091EA0081E0913009F080E0811105C09C
:100780008091E700882309F466C08091E900811117
:100790000EC08091E80081110AC00E94FA02809187
:1007A000E900811104C08091E8008823B1F31CBEE8
:1007B0008091E800811102C00E9407032FEF82E5BB
:1007C00097E0215080409040E1F700C000001CBE3F
:1007D00018BA1092EA008091E800813039F4109242
:1007E000E800D093EC008093E70091CF0E94EE01E7
:1007F00060E081E00E94F50189EA90E00E948902B0
:100800002FEF83ED90E3215080409040E1F700C04E
:1008100000008CEA0E9430038FE59AEE0197F1F711
:1008200000C0000084E40E9430038FE59AEE019737
:10083000F1F700C0000088E80E9430038FE59AEECF
:100840000197F1F700C000000E94EE011092EC0049
:100850001092E7005CCF81E02091E900213009F09F
:1008600080E0811105C08091E600882309F464C00E
:1008700091110EC08091E80081110AC00E94070307
:100880008091EA00811104C08091E8008823B1F3CF
:100890001CBE8091E800811102C00E94FA029FEF05
:1008A00022E587E0915020408040E1F700C0000041
:1008B0001CBE18BA1092E9008091E800813039F42A
:1008C0001092E800D093EC008093E60020CF0E94C5
:1008D000EE0160E081E00E94F50189EA90E00E946B
:1008E00089029FEF23ED80E3915020408040E1F7A3
:1008F00000C000008CEA0E9430038FE59AEE019759
:10090000F1F700C0000084E40E9430038FE59AEE06
:100910000197F1F700C0000088E80E9430038FE5DE
:100920009AEE0197F1F700C000000E94EE011092CC
:10093000EC001092E600EBCE8091EC00883881F458
:100940000E94FA029FE727E986E09150204080400C
:10095000E1F700C000001CBE18BA1092EC0023C0E2
:10096000893981F40E9407039FE727E986E09150C7
:1009700020408040E1F700C000001CBE18BA109271
:10098000EC00C5CE8091EC008F3F69F40E94EE012F
:1009900060E081E00E94F50187EB90E00E9489020F
:1009A0001092EC00B4CE8091EC00863609F06DC058
:1009B0000E94EE0160E081E00E94F5018DEB90E085
:1009C0000E9489028091EA0081110FC08091E800A5
:1009D00081110BC0CCBF0E940E038091EA008111EF
:1009E00004C08091E8008823A9F31CBE8091E80030
:1009F000811102C00E94FA029FE72AE186E091502D
:100A000020408040E1F700C000001CBE18BA1092E0
:100A1000E9008091E800813029F41092E8001092FA
:100A2000EC0075CE0E94EE0160E081E00E94F501CD
:100A300082EC90E00E9489029FEF29E688E19150C4
:100A400020408040E1F700C000008CEA0E943003A3
:100A50008FE59AEE0197F1F700C0000084E40E9450
:100A600030038FE59AEE0197F1F700C0000088E8A7
:100A70000E9430038FE59AEE0197F1F700C0000065
:100A80000E94EE011092EC0042CE843409F03FCE79
:100A90000E94EE0160E081E00E94F50180ED90E0AF
:100AA0000E9489028091E90081110FC08091E800C5
:100AB00081110BC0CCBF0E9401038091E90081111C
:100AC00004C08091E8008823A9F31CBE8091E8004F
:100AD000811102C00E9407039FEF22E587E0915039
:100AE00020408040E1F700C000001CBE18BA109200
:100AF000EA008091E800813029F41092E800109219
:100B0000EC0005CE0E94EE0160E081E00E94F5015C
:100B100086ED90E00E9489029FEF29E688E19150DE
:100B200020408040E1F700C000008CEA0E943003C2
:100B30008FE59AEE0197F1F700C0000084E40E946F
:100B400030038FE59AEE0197F1F700C0000088E8C6
:100B50000E9430038FE59AEE0197F1F700C0000084
:100B60000E94EE011092EC00D2CDCF93DF930E9451
:100B70003403CDEED0E088830E9434038093EE00EE
:100B80000E9434038093EF0098819B3A09F04BC098
:100B90002091EE00213119F5893909F05CC08CEA09
:100BA00090E00E9430038BE49DE10197F1F700C0D3
:100BB000000082E290E00E9430038BE49DE1019707
:100BC000F1F700C0000088E890E00E9430038BE459
:100BD0009DE10197F1F700C0000082E257C02111AA
:100BE0003AC08939C1F58CEA90E00E9430038BE469
:100BF0009DE10197F1F700C0000083E390E00E94BF
:100C000030038BE49DE10197F1F700C0000088E814
:100C100090E00E9430038BE49DE10197F1F700C062
:100C2000000081E133C0983869F42091EE00283843
:100C3000E1F48838D1F41092ED001092EE00109299
:100C4000EF0024C0993939F49091EE009939E9F414
:100C50008939D9F41BC0943441F49091EE00943456
:100C600071F4843499F08FEF11C0963651F490915D
:100C7000EE00963641F4863649F08FEF07C08FEFCD
:100C800005C08FEF03C08FEF01C08FEFDF91CF91D1
:060C90000895F894FFCF67
:100C9600496E697420506F736974696F6E004D6F89
:100CA60076696E67206C656674004D6F76696E674F
:100CB6002072696768740044522E20566973696F02
:100CC6006E0052454144590053544F5000536361DE
:100CD6006E6E696E672E2E2E005363616E20636FF3
:100CE6006D706C657465004552524F52004C6566D6
:100CF60074004C65667420706F736974696F6E005A
:100D0600526967687400526967687420706F736906
:060D160074696F6E00001D
:00000001FF
